{
  "_format": "hh-sol-artifact-1",
  "contractName": "TaskAgent",
  "sourceName": "contracts/TaskAgent.sol",
  "abi": [
    {
      "inputs": [
        {
          "internalType": "address",
          "name": "_identityRegistry",
          "type": "address"
        },
        {
          "internalType": "address",
          "name": "_reputationRegistry",
          "type": "address"
        },
        {
          "internalType": "address",
          "name": "_validationRegistry",
          "type": "address"
        }
      ],
      "stateMutability": "nonpayable",
      "type": "constructor"
    },
    {
      "inputs": [
        {
          "internalType": "address",
          "name": "owner",
          "type": "address"
        }
      ],
      "name": "OwnableInvalidOwner",
      "type": "error"
    },
    {
      "inputs": [
        {
          "internalType": "address",
          "name": "account",
          "type": "address"
        }
      ],
      "name": "OwnableUnauthorizedAccount",
      "type": "error"
    },
    {
      "inputs": [],
      "name": "ReentrancyGuardReentrantCall",
      "type": "error"
    },
    {
      "anonymous": false,
      "inputs": [
        {
          "indexed": true,
          "internalType": "uint256",
          "name": "agentId",
          "type": "uint256"
        },
        {
          "indexed": false,
          "internalType": "string",
          "name": "name",
          "type": "string"
        },
        {
          "indexed": false,
          "internalType": "string",
          "name": "uri",
          "type": "string"
        }
      ],
      "name": "AgentRegistered",
      "type": "event"
    },
    {
      "anonymous": false,
      "inputs": [
        {
          "indexed": true,
          "internalType": "address",
          "name": "previousOwner",
          "type": "address"
        },
        {
          "indexed": true,
          "internalType": "address",
          "name": "newOwner",
          "type": "address"
        }
      ],
      "name": "OwnershipTransferred",
      "type": "event"
    },
    {
      "anonymous": false,
      "inputs": [
        {
          "indexed": true,
          "internalType": "address",
          "name": "owner",
          "type": "address"
        },
        {
          "indexed": false,
          "internalType": "uint256",
          "name": "amount",
          "type": "uint256"
        }
      ],
      "name": "PaymentWithdrawn",
      "type": "event"
    },
    {
      "anonymous": false,
      "inputs": [
        {
          "indexed": true,
          "internalType": "uint256",
          "name": "taskId",
          "type": "uint256"
        }
      ],
      "name": "TaskCancelled",
      "type": "event"
    },
    {
      "anonymous": false,
      "inputs": [
        {
          "indexed": true,
          "internalType": "uint256",
          "name": "taskId",
          "type": "uint256"
        },
        {
          "indexed": false,
          "internalType": "string",
          "name": "outputURI",
          "type": "string"
        },
        {
          "indexed": false,
          "internalType": "bytes32",
          "name": "outputHash",
          "type": "bytes32"
        }
      ],
      "name": "TaskCompleted",
      "type": "event"
    },
    {
      "anonymous": false,
      "inputs": [
        {
          "indexed": true,
          "internalType": "uint256",
          "name": "taskId",
          "type": "uint256"
        },
        {
          "indexed": true,
          "internalType": "address",
          "name": "disputer",
          "type": "address"
        }
      ],
      "name": "TaskDisputed",
      "type": "event"
    },
    {
      "anonymous": false,
      "inputs": [
        {
          "indexed": true,
          "internalType": "uint256",
          "name": "taskId",
          "type": "uint256"
        },
        {
          "indexed": true,
          "internalType": "address",
          "name": "requester",
          "type": "address"
        },
        {
          "indexed": false,
          "internalType": "enum TaskAgent.TaskType",
          "name": "taskType",
          "type": "uint8"
        },
        {
          "indexed": false,
          "internalType": "uint256",
          "name": "payment",
          "type": "uint256"
        }
      ],
      "name": "TaskRequested",
      "type": "event"
    },
    {
      "anonymous": false,
      "inputs": [
        {
          "indexed": true,
          "internalType": "uint256",
          "name": "taskId",
          "type": "uint256"
        }
      ],
      "name": "TaskStarted",
      "type": "event"
    },
    {
      "inputs": [],
      "name": "agentDescription",
      "outputs": [
        {
          "internalType": "string",
          "name": "",
          "type": "string"
        }
      ],
      "stateMutability": "view",
      "type": "function"
    },
    {
      "inputs": [],
      "name": "agentId",
      "outputs": [
        {
          "internalType": "uint256",
          "name": "",
          "type": "uint256"
        }
      ],
      "stateMutability": "view",
      "type": "function"
    },
    {
      "inputs": [],
      "name": "agentName",
      "outputs": [
        {
          "internalType": "string",
          "name": "",
          "type": "string"
        }
      ],
      "stateMutability": "view",
      "type": "function"
    },
    {
      "inputs": [],
      "name": "agentURI",
      "outputs": [
        {
          "internalType": "string",
          "name": "",
          "type": "string"
        }
      ],
      "stateMutability": "view",
      "type": "function"
    },
    {
      "inputs": [
        {
          "internalType": "uint256",
          "name": "taskId",
          "type": "uint256"
        }
      ],
      "name": "cancelTask",
      "outputs": [],
      "stateMutability": "nonpayable",
      "type": "function"
    },
    {
      "inputs": [
        {
          "internalType": "uint256",
          "name": "taskId",
          "type": "uint256"
        },
        {
          "internalType": "string",
          "name": "outputURI",
          "type": "string"
        },
        {
          "internalType": "bytes32",
          "name": "outputHash",
          "type": "bytes32"
        }
      ],
      "name": "completeTask",
      "outputs": [],
      "stateMutability": "nonpayable",
      "type": "function"
    },
    {
      "inputs": [
        {
          "internalType": "uint256",
          "name": "taskId",
          "type": "uint256"
        }
      ],
      "name": "disputeTask",
      "outputs": [],
      "stateMutability": "nonpayable",
      "type": "function"
    },
    {
      "inputs": [],
      "name": "getAllTaskIds",
      "outputs": [
        {
          "internalType": "uint256[]",
          "name": "",
          "type": "uint256[]"
        }
      ],
      "stateMutability": "view",
      "type": "function"
    },
    {
      "inputs": [],
      "name": "getReputationSummary",
      "outputs": [
        {
          "internalType": "uint64",
          "name": "feedbackCount",
          "type": "uint64"
        },
        {
          "internalType": "int128",
          "name": "averageRating",
          "type": "int128"
        }
      ],
      "stateMutability": "view",
      "type": "function"
    },
    {
      "inputs": [
        {
          "internalType": "uint256",
          "name": "taskId",
          "type": "uint256"
        }
      ],
      "name": "getTask",
      "outputs": [
        {
          "components": [
            {
              "internalType": "uint256",
              "name": "taskId",
              "type": "uint256"
            },
            {
              "internalType": "uint256",
              "name": "agentId",
              "type": "uint256"
            },
            {
              "internalType": "address",
              "name": "requester",
              "type": "address"
            },
            {
              "internalType": "enum TaskAgent.TaskType",
              "name": "taskType",
              "type": "uint8"
            },
            {
              "internalType": "enum TaskAgent.TaskStatus",
              "name": "status",
              "type": "uint8"
            },
            {
              "internalType": "string",
              "name": "inputURI",
              "type": "string"
            },
            {
              "internalType": "bytes32",
              "name": "inputHash",
              "type": "bytes32"
            },
            {
              "internalType": "string",
              "name": "outputURI",
              "type": "string"
            },
            {
              "internalType": "bytes32",
              "name": "outputHash",
              "type": "bytes32"
            },
            {
              "internalType": "uint256",
              "name": "payment",
              "type": "uint256"
            },
            {
              "internalType": "uint256",
              "name": "createdAt",
              "type": "uint256"
            },
            {
              "internalType": "uint256",
              "name": "completedAt",
              "type": "uint256"
            }
          ],
          "internalType": "struct TaskAgent.Task",
          "name": "",
          "type": "tuple"
        }
      ],
      "stateMutability": "view",
      "type": "function"
    },
    {
      "inputs": [
        {
          "internalType": "enum TaskAgent.TaskStatus",
          "name": "status",
          "type": "uint8"
        }
      ],
      "name": "getTasksByStatus",
      "outputs": [
        {
          "internalType": "uint256[]",
          "name": "",
          "type": "uint256[]"
        }
      ],
      "stateMutability": "view",
      "type": "function"
    },
    {
      "inputs": [],
      "name": "getTotalTasks",
      "outputs": [
        {
          "internalType": "uint256",
          "name": "",
          "type": "uint256"
        }
      ],
      "stateMutability": "view",
      "type": "function"
    },
    {
      "inputs": [],
      "name": "getValidationSummary",
      "outputs": [
        {
          "internalType": "uint64",
          "name": "validationCount",
          "type": "uint64"
        },
        {
          "internalType": "uint8",
          "name": "averageScore",
          "type": "uint8"
        }
      ],
      "stateMutability": "view",
      "type": "function"
    },
    {
      "inputs": [
        {
          "internalType": "uint256",
          "name": "taskId",
          "type": "uint256"
        },
        {
          "internalType": "int128",
          "name": "rating",
          "type": "int128"
        },
        {
          "internalType": "string",
          "name": "comment",
          "type": "string"
        }
      ],
      "name": "giveFeedback",
      "outputs": [],
      "stateMutability": "nonpayable",
      "type": "function"
    },
    {
      "inputs": [],
      "name": "identityRegistry",
      "outputs": [
        {
          "internalType": "contract IIdentityRegistry",
          "name": "",
          "type": "address"
        }
      ],
      "stateMutability": "view",
      "type": "function"
    },
    {
      "inputs": [],
      "name": "isRegistered",
      "outputs": [
        {
          "internalType": "bool",
          "name": "",
          "type": "bool"
        }
      ],
      "stateMutability": "view",
      "type": "function"
    },
    {
      "inputs": [],
      "name": "owner",
      "outputs": [
        {
          "internalType": "address",
          "name": "",
          "type": "address"
        }
      ],
      "stateMutability": "view",
      "type": "function"
    },
    {
      "inputs": [
        {
          "internalType": "string",
          "name": "_name",
          "type": "string"
        },
        {
          "internalType": "string",
          "name": "_description",
          "type": "string"
        },
        {
          "internalType": "string",
          "name": "_agentURI",
          "type": "string"
        }
      ],
      "name": "registerAgent",
      "outputs": [],
      "stateMutability": "nonpayable",
      "type": "function"
    },
    {
      "inputs": [],
      "name": "renounceOwnership",
      "outputs": [],
      "stateMutability": "nonpayable",
      "type": "function"
    },
    {
      "inputs": [],
      "name": "reputationRegistry",
      "outputs": [
        {
          "internalType": "contract IReputationRegistry",
          "name": "",
          "type": "address"
        }
      ],
      "stateMutability": "view",
      "type": "function"
    },
    {
      "inputs": [
        {
          "internalType": "enum TaskAgent.TaskType",
          "name": "taskType",
          "type": "uint8"
        },
        {
          "internalType": "string",
          "name": "inputURI",
          "type": "string"
        },
        {
          "internalType": "bytes32",
          "name": "inputHash",
          "type": "bytes32"
        }
      ],
      "name": "requestTask",
      "outputs": [
        {
          "internalType": "uint256",
          "name": "taskId",
          "type": "uint256"
        }
      ],
      "stateMutability": "payable",
      "type": "function"
    },
    {
      "inputs": [
        {
          "internalType": "address",
          "name": "validator",
          "type": "address"
        },
        {
          "internalType": "string",
          "name": "requestURI",
          "type": "string"
        },
        {
          "internalType": "bytes32",
          "name": "requestHash",
          "type": "bytes32"
        }
      ],
      "name": "requestValidation",
      "outputs": [],
      "stateMutability": "nonpayable",
      "type": "function"
    },
    {
      "inputs": [
        {
          "internalType": "enum TaskAgent.TaskType",
          "name": "taskType",
          "type": "uint8"
        },
        {
          "internalType": "uint256",
          "name": "price",
          "type": "uint256"
        }
      ],
      "name": "setTaskPrice",
      "outputs": [],
      "stateMutability": "nonpayable",
      "type": "function"
    },
    {
      "inputs": [
        {
          "internalType": "uint256",
          "name": "taskId",
          "type": "uint256"
        }
      ],
      "name": "startTask",
      "outputs": [],
      "stateMutability": "nonpayable",
      "type": "function"
    },
    {
      "inputs": [
        {
          "internalType": "uint256",
          "name": "",
          "type": "uint256"
        }
      ],
      "name": "taskIds",
      "outputs": [
        {
          "internalType": "uint256",
          "name": "",
          "type": "uint256"
        }
      ],
      "stateMutability": "view",
      "type": "function"
    },
    {
      "inputs": [
        {
          "internalType": "enum TaskAgent.TaskType",
          "name": "",
          "type": "uint8"
        }
      ],
      "name": "taskPrices",
      "outputs": [
        {
          "internalType": "uint256",
          "name": "",
          "type": "uint256"
        }
      ],
      "stateMutability": "view",
      "type": "function"
    },
    {
      "inputs": [
        {
          "internalType": "uint256",
          "name": "",
          "type": "uint256"
        }
      ],
      "name": "tasks",
      "outputs": [
        {
          "internalType": "uint256",
          "name": "taskId",
          "type": "uint256"
        },
        {
          "internalType": "uint256",
          "name": "agentId",
          "type": "uint256"
        },
        {
          "internalType": "address",
          "name": "requester",
          "type": "address"
        },
        {
          "internalType": "enum TaskAgent.TaskType",
          "name": "taskType",
          "type": "uint8"
        },
        {
          "internalType": "enum TaskAgent.TaskStatus",
          "name": "status",
          "type": "uint8"
        },
        {
          "internalType": "string",
          "name": "inputURI",
          "type": "string"
        },
        {
          "internalType": "bytes32",
          "name": "inputHash",
          "type": "bytes32"
        },
        {
          "internalType": "string",
          "name": "outputURI",
          "type": "string"
        },
        {
          "internalType": "bytes32",
          "name": "outputHash",
          "type": "bytes32"
        },
        {
          "internalType": "uint256",
          "name": "payment",
          "type": "uint256"
        },
        {
          "internalType": "uint256",
          "name": "createdAt",
          "type": "uint256"
        },
        {
          "internalType": "uint256",
          "name": "completedAt",
          "type": "uint256"
        }
      ],
      "stateMutability": "view",
      "type": "function"
    },
    {
      "inputs": [
        {
          "internalType": "address",
          "name": "newOwner",
          "type": "address"
        }
      ],
      "name": "transferOwnership",
      "outputs": [],
      "stateMutability": "nonpayable",
      "type": "function"
    },
    {
      "inputs": [
        {
          "internalType": "string",
          "name": "newURI",
          "type": "string"
        }
      ],
      "name": "updateAgentURI",
      "outputs": [],
      "stateMutability": "nonpayable",
      "type": "function"
    },
    {
      "inputs": [],
      "name": "validationRegistry",
      "outputs": [
        {
          "internalType": "contract IValidationRegistry",
          "name": "",
          "type": "address"
        }
      ],
      "stateMutability": "view",
      "type": "function"
    },
    {
      "inputs": [],
      "name": "withdraw",
      "outputs": [],
      "stateMutability": "nonpayable",
      "type": "function"
    },
    {
      "stateMutability": "payable",
      "type": "receive"
    }
  ],
  "bytecode": "0x6080346200016957601f620029c038819003918201601f191683019291906001600160401b038411838510176200016e5781606092849260409687528339810103126200016957620000518162000184565b906200006d83620000656020840162000184565b920162000184565b9133156200015157600080546001600160a01b0319808216339081178455662386f26fc10000968896949592946001600160a01b039491938593919284929083167f8be0079c531659141344cd1fd0a4f28419497f9722a3daafe3b4186f6b6457e08a80a3600180556001600755168560025416176002551683600354161760035516906004541617600455808052600a60205266038d7ea4c6800082822055600181526611c37937e080008282205560028152660aa87bee538000828220556003815266071afd498d0000828220556004815220555161282690816200019a8239f35b8351631e4fbdf760e01b815260006004820152602490fd5b600080fd5b634e487b7160e01b600052604160045260246000fd5b51906001600160a01b0382168203620001695756fe6080604052600436101561001b575b361561001957600080fd5b005b6000803560e01c8063085945a7146120685780630e811ea814611fa0578063134e18f414611f775780631579259b14611e095780631d65e77e14611c225780632236684414611bff57806329a1342414611b7d57806339118d2514611b445780633c19804e14611ab05780633c93b90514611a925780633ccfd60b146119aa5780633e8b82a9146119165780634c6b993a146118ed57806356a2d6601461125a5780635f944326146111e3578063622e8f0914610d85578063715018a614610d2b5780637eec20a814610c485780638d97767214610b575780638da5cb5b14610b305780638e5a654a14610a5c57806397d9c23e146109685780639f1a4313146108555780639f34dace146106d55780639ffe8471146104e1578063c8db44e3146104b8578063e84f43b71461049a578063ec7304a1146103a5578063efdc193f14610364578063f2fde38b146102d45763ff10aae41461017c575061000e565b346102b657806003196060368201126102d1576024359081600f0b8092036102cd576044356001600160401b0381116102c8576101bd9036906004016120c4565b6004358552600860205260408520600201546001600160a01b039492906102119060ff906101ee8882163314612579565b6102086002838360a81c166102028161212c565b146125b9565b60a01c16612689565b94600354169160055491833b156102c4578795866020610276604094839661026687519d8e9c8d9b631e01b53f60e11b8d5260048d015260248c01528660448c015261010060648c01526101048b019061214c565b91868a84030160848b015261248e565b86810393840160a4880152828152601c840160c488015201528260e485015201925af180156102b9576102a65750f35b6102af906121fd565b6102b65780f35b80fd5b6040513d84823e3d90fd5b8780fd5b505050fd5b5050fd5b50fd5b50346102b65760203660031901126102b6576102ee6120a9565b6102f6612329565b6001600160a01b0390811690811561034b57600054826bffffffffffffffffffffffff60a01b821617600055167f8be0079c531659141344cd1fd0a4f28419497f9722a3daafe3b4186f6b6457e0600080a380f35b604051631e4fbdf760e01b815260048101849052602490fd5b50346102b65760203660031901126102b65760043560058110156103a1576020918161039160409361212c565b8152600a83522054604051908152f35b5080fd5b50346102b65760031981813601126103a15760408051610405926103c882612247565b84825260018060a01b0360045416906020600554918786519788968795630dbe55eb60e11b8752600487015260606024870152606486019061264c565b84810392830160448601525201915afa91821561048e5780918193610440575b604080516001600160401b038516815260ff86166020820152f35b915091506040813d604011610486575b8161045d60409383612262565b810103126103a1576040915060ff61048060206104798461262a565b930161263e565b92610425565b3d9150610450565b604051903d90823e3d90fd5b50346102b657806003193601126102b6576020600554604051908152f35b50346102b657806003193601126102b6576003546040516001600160a01b039091168152602090f35b50346102b65760603660031901126102b6576001600160401b03906004356024358381116106d1576105179036906004016120c4565b604435610522612329565b8385526020906008825260408620600281019788549860ff8a60a81c16996105498b61212c565b6001809b036106955760ff60a81b1916600160a91b17905560058201908511610681576105808561057a83546121c3565b836123b4565b8798601f8611600114610604578580918a9b7fdaaa8c45dfeea33ccb066e8f974e367fcfb6c12167911fa811a54900b01d14779a9b936105f9575b501b906000198760031b1c19161790555b8160068201556009429101556105ef60405194859460408652604086019161248e565b918301520390a280f35b8901359250386105bb565b818952848920601f1987169a8a5b8c811061066c5750877fdaaa8c45dfeea33ccb066e8f974e367fcfb6c12167911fa811a54900b01d14779a9b9c10610652575b505085811b0190556105cc565b880135600019600389901b60f8161c191690553880610645565b89820135835591830191908701908701610612565b634e487b7160e01b88526041600452602488fd5b60405162461bcd60e51b81526004810187905260146024820152735461736b206e6f7420696e2070726f677265737360601b6044820152606490fd5b8280fd5b50346102b657602090816003193601126102b6576001600160401b036004358181116106d1576107099036906004016120c4565b91610712612329565b61072060ff600654166124af565b82116108415761073a82610735600d546121c3565b612355565b8293601f83116001146107d0575081839484916107c5575b508260011b906000198460031b1c191617600d555b60025460055491906001600160a01b0316803b156107c1576107b09385809460405196879586948593630af28bd360e01b8552600485015260406024850152604484019161248e565b03925af180156102b9576102a65750f35b8480fd5b905081013538610752565b600d8452601f198316946000805160206127b18339815191529185905b8782106108295750508385961061080f575b5050600182811b01600d55610767565b820135600019600385901b60f8161c1916905538806107ff565b806001849582949588013581550194019201906107ed565b634e487b7160e01b83526041600452602483fd5b50346102b65760031981813601126103a1579060606108ba926040519061087b82612247565b83825260018060a01b0360035416906040600554918660208351998a978896631037774b60e31b8852600488015260806024880152608487019061264c565b8581039384016044870152828152601c84016064870152015201915afa801561095b57818091610901575b604083836001600160401b03835192168252600f0b6020820152f35b9150506060823d8211610953575b8161091c60609383612262565b810103126102b65761092d8261262a565b60208301519182600f0b83036102b6575061094b604080940161263e565b5090386108e5565b3d915061090f565b50604051903d90823e3d90fd5b50346102b65760203660031901126102b65760043580825260086020526040822060028101805490916009906109a86001600160a01b0384163314612579565b6109bd600260ff8560a81c166102028161212c565b015462093a808101809111610a48574211610a0a5760ff60a81b1916600360a81b17905533907f4c876e9aba8144edd2840298ef3fd0d8735009124d7a0185a41b12680c0937828380a380f35b60405162461bcd60e51b8152602060048201526016602482015275111a5cdc1d5d19481c195c9a5bd908195e1c1a5c995960521b6044820152606490fd5b634e487b7160e01b85526011600452602485fd5b50346102b657806003193601126102b6576040516000600c54610a7e816121c3565b80845290600190818116908115610b095750600114610ac0575b610abc84610aa881860382612262565b60405191829160208352602083019061214c565b0390f35b600c600090815292506000805160206127918339815191525b828410610af1575050508101602001610aa882610a98565b80546020858701810191909152909301928101610ad9565b60ff191660208087019190915292151560051b85019092019250610aa89150839050610a98565b50346102b657806003193601126102b657546040516001600160a01b039091168152602090f35b50346102b65760203660031901126102b657604060209160043581526008835220805490600181015460028201549160ff8360a01c1692610c2b60ff8260a81c16610ba460038501612283565b90610c18600486015492610bba60058801612283565b92600688015499600789015497600960088b01549a01549a6040519e8f9e8f908152015260018060a01b031660408d0152610bf48161212c565b60608c0152610c028161212c565b60808b01526101808060a08c01528a019061214c565b9160c089015287820360e089015261214c565b936101008601526101208501526101408401526101608301520390f35b50346102b65760203660031901126102b657600435610c65612517565b808252600860205281808080600760408220600281018054610c903360018060a01b03831614612579565b610ca960ff8260a81c16610ca38161212c565b1561253a565b60ff60a81b1916600160aa1b1790550154335af1610cc56125fa565b5015610cf6577fc6eacc3aa5b2aa77b5a826b832a804ca0b71830ec74f9aa57a15edd978c31ed68280a26001805580f35b60405162461bcd60e51b815260206004820152600d60248201526c1499599d5b990819985a5b1959609a1b6044820152606490fd5b50346102b657806003193601126102b657610d44612329565b600080546001600160a01b0319811682556001600160a01b03167f8be0079c531659141344cd1fd0a4f28419497f9722a3daafe3b4186f6b6457e08280a380f35b5060603660031901126102b657600560043510156102b6576024356001600160401b0381116103a157610dbc9036906004016120c4565b610dc4612517565b610dd260ff600654166124af565b610ddd60043561212c565b6004358352600a602052604083205434106111a757610e4460075492610e02846124f2565b6007556005549260405193610e1685612210565b8585526020850152336040850152610e2f60043561212c565b6004356060850152856080850152369161243a565b60a082015260443560c0820152604051610e5d81612247565b83815260e0820152826101008201523461012082015242610140820152826101608201528183526008602052604083209080518255602081015160018301556002820160018060a01b03604083015116815490606084015190610ebf8261212c565b610ec88261212c565b6080850151610ed68161212c565b610edf8161212c565b60ff60a81b9060a81b169269ffffffffffffffffffff60b01b16179060ff60a01b9060a01b161717905560a08101518051906001600160401b038211611119578190610f3b82610f3260038801546121c3565b600388016123b4565b602090601f831160011461113857879261112d575b50508160011b916000199060031b1c19161760038301555b60c0810151600483015560e08101518051906001600160401b03821161111957610fa282610f9960058701546121c3565b600587016123b4565b602090601f83116001146110a65791806009949261016094899261109b575b50508160011b916000199060031b1c19161760058501555b6101008101516006850155610120810151600785015561014081015160088501550151910155600954916801000000000000000083101561108757506110278260016020940160095561218c565b81549060031b9083821b91600019901b191617905560405161104a60043561212c565b60043581523483820152817f1cb2bb7d84ee9bfc6a41858d224af0767d7dca3c482842f56f4b1ae33f0b5fdb60403393a360018055604051908152f35b634e487b7160e01b81526041600452602490fd5b015190503880610fc1565b906005850187526020872091875b601f1985168110611101575092600994926001926101609583601f198116106110e8575b505050811b016005850155610fd9565b015160001960f88460031b161c191690553880806110d8565b919260206001819286850151815501940192016110b4565b634e487b7160e01b86526041600452602486fd5b015190503880610f50565b9250600385018752602087209087935b601f198416851061118c576001945083601f19811610611173575b505050811b016003830155610f68565b015160001960f88460031b161c19169055388080611163565b81810151835560209485019460019093019290910190611148565b60405162461bcd60e51b8152602060048201526014602482015273125b9cdd59999a58da595b9d081c185e5b595b9d60621b6044820152606490fd5b50346102b65760203660031901126102b657600435611200612329565b808252600860205260026040832001805461122460ff8260a81c16610ca38161212c565b60ff60a81b1916600160a81b1790557fa20ac7f16cfb4313b156d64f380ccd1f8276f438d0b621eb33db07cfc639da478280a280f35b50346102b65760603660031901126102b6576004356001600160401b0381116103a15761128b9036906004016120c4565b906024356001600160401b0381116118e9576112ab9036906004016120c4565b9190926044356001600160401b0381116118e5576112cd9036906004016120c4565b906112d6612329565b60ff600654166118ab576001600160401b0383116116cd576112f9600b546121c3565b601f8111611842575b508287601f82116001146117d15788916117c6575b508360011b906000198560031b1c191617600b555b6001600160401b0385116116cd57611345600c546121c3565b601f811161175d575b508487601f82116001146116ec5788916116e1575b508560011b906000198760031b1c191617600c555b6001600160401b0382116116cd5761139582610735600d546121c3565b8187601f821160011461165c578891611651575b508260011b906000198460031b1c191617600d555b60405194606086018681106001600160401b0382111761163b5760405260028652958795865b6040811061160b5750604051976113fa8961222c565b61147d6040519361140a8561222c565b6004855260209a85636e616d6560e01b8d80980152815261142c368a8c61243a565b8682015261143985612471565b5261144384612471565b50604051926114518461222c565b60405161145d8161222c565b600b81526a3232b9b1b934b83a34b7b760a91b878201528452369161243a565b8382015261148a8261247e565b526114948161247e565b5060018060a01b0360025416604051978892634752114360e11b8452604060048501526114c560448501888861248e565b60031985820301602486015281518082528682019187808360051b83010194019285915b8383106115b55750505050509083809203925af19485156115aa57879561156f575b50946115699185967fa076203706e492f79ad9a4b71bb8a43ae37498c378385d379c5a829e9194643a96600555600160ff19600654161760065561155c60405196879660408852604088019161248e565b928584039086015261248e565b0390a280f35b919450948082813d83116115a3575b6115888183612262565b8101031261159f579051909490939061156961150b565b8680fd5b503d61157e565b6040513d89823e3d90fd5b9397509388919550976115f66001939799601f19868203018752895190836115e6835160408452604084019061214c565b920151908481840391015261214c565b970193019301938c96948e948d9794936114e9565b602091975060409892985161161f8161222c565b6060815282606081830152828a010152019588969791976113e4565b634e487b7160e01b600052604160045260246000fd5b9050810135386113a9565b600d89526000805160206127b18339815191529150885b601f19851681106116b5575083601f1981161061169b575b5050600182811b01600d556113be565b820135600019600385901b60f8161c19169055388061168b565b90916020600181928587013581550193019101611673565b634e487b7160e01b87526041600452602487fd5b905086013538611363565b600c89526000805160206127918339815191529150885b601f1988168110611745575086601f1981161061172b575b5050600185811b01600c55611378565b870135600019600388901b60f8161c19169055388061171b565b9091602060018192858c013581550193019101611703565b600c600052601f860160051c60008051602061279183398151915201602087106117b1575b601f820160051c6000805160206127918339815191520181106117a5575061134e565b60008155600101611782565b50600080516020612791833981519152611782565b905084013538611317565b600b89526000805160206127d18339815191529150885b601f198616811061182a575084601f19811610611810575b5050600183811b01600b5561132c565b850135600019600386901b60f8161c191690553880611800565b9091602060018192858a0135815501930191016117e8565b600b600052601f840160051c6000805160206127d18339815191520160208510611896575b601f820160051c6000805160206127d183398151915201811061188a5750611302565b60008155600101611867565b506000805160206127d1833981519152611867565b60405162461bcd60e51b8152602060048201526012602482015271105b1c9958591e481c9959da5cdd195c995960721b6044820152606490fd5b8580fd5b8380fd5b50346102b657806003193601126102b6576004546040516001600160a01b039091168152602090f35b50346102b657806003193601126102b6576040516000600d54611938816121c3565b80845290600190818116908115610b09575060011461196157610abc84610aa881860382612262565b600d600090815292506000805160206127b18339815191525b828410611992575050508101602001610aa882610a98565b8054602085870181019190915290930192810161197a565b50346102b657806003193601126102b6576119c3612329565b6119cb612517565b478015611a54578180808084335af16119e26125fa565b5015611a1b576040519081527f84511ecc081974f18e7f3e0dcc19db078b55bbd3852ddd0dd85b3aebb7bf94c260203392a26001805580f35b60405162461bcd60e51b815260206004820152601160248201527015da5d1a191c985dd85b0819985a5b1959607a1b6044820152606490fd5b60405162461bcd60e51b81526020600482015260166024820152754e6f2062616c616e636520746f20776974686472617760501b6044820152606490fd5b50346102b657806003193601126102b6576020600954604051908152f35b50346102b657806003193601126102b6576040516000600b54611ad2816121c3565b80845290600190818116908115610b095750600114611afb57610abc84610aa881860382612262565b600b600090815292506000805160206127d18339815191525b828410611b2c575050508101602001610aa882610a98565b80546020858701810191909152909301928101611b14565b50346102b65760203660031901126102b657600435906009548210156102b6576020611b6f8361218c565b90546040519160031b1c8152f35b50346102b657806003193601126102b657604051600980548083529083526020808301937f6e1540171b6c0c960b71a7020d9f60077f6af931a8bbf590da0223dacf75c7af92915b828210611be857610abc85611bdc81890382612262565b604051918291826120f1565b835486529485019460019384019390910190611bc5565b50346102b657806003193601126102b657602060ff600654166040519015158152f35b50346102b65760203660031901126102b657806040916101608351611c4681612210565b8281528260208201528285820152826060820152826080820152606060a08201528260c0820152606060e082015282610100820152826101208201528261014082015201526004358152600860205220600960405191611ca583612210565b805483526001810154602084015260028101546001600160a01b038116604085015260ff9060a081901c8216611cda8161212c565b606086015260a81c16611cec8161212c565b6080840152611cfd60038201612283565b60a0840152600481015460c0840152611d1860058201612283565b60e08401526006810154610100840152600781015461012084015260088101546101408401520154610160820152604051809160208252805160208301526020810151604083015260018060a01b0360408201511660608301526060810151611d808161212c565b60808301526080810151611d938161212c565b60a083015260a0810151610160611ddc611dbb610180938460c08801526101a087019061214c565b60c085015160e087015260e0850151601f198783030161010088015261214c565b92610100810151610120860152610120810151610140860152610140810151828601520151908301520390f35b50346102b6576020806003193601126103a157600591600435838110156103a157819282600954935b848110611f175750611e4385612408565b94611e516040519687612262565b808652611e60601f1991612408565b0136838701378092815b858110611e7f5760405180610abc89826120f1565b611e888161218c565b9054600391821b1c8452600885528260ff600260408720015460a81c16611eae8261212c565b611eb78161212c565b14611ecc575b50611ec7906124f2565b611e6a565b611ed782969261218c565b9054911b1c94611ee6826124f2565b958851831015611f015785611ec7938b1b8a01015290611ebd565b634e487b7160e01b600052603260045260246000fd5b611f208161218c565b90549060031b1c8252600883528360ff600260408520015460a81c16611f458261212c565b611f4e8161212c565b14611f62575b611f5d906124f2565b611e32565b94611f6f611f5d916124f2565b959050611f54565b50346102b657806003193601126102b6576002546040516001600160a01b039091168152602090f35b50346102b65760603660031901126102b657611fba6120a9565b816024356001600160401b0381116103a157611fda9036906004016120c4565b9290611fe4612329565b611ff260ff600654166124af565b600454600554926001600160a01b039182169290833b156118e557612042869260405198899788968795632abd003160e21b8752166004860152602485015260806044850152608484019161248e565b604435606483015203925af180156102b95761205c575080f35b612065906121fd565b80f35b50346102b65760403660031901126102b65760043560058110156103a15761208e612329565b6120978161212c565b8152600a602052602435604082205580f35b600435906001600160a01b03821682036120bf57565b600080fd5b9181601f840112156120bf578235916001600160401b0383116120bf57602083818601950101116120bf57565b6020908160408183019282815285518094520193019160005b828110612118575050505090565b83518552938101939281019260010161210a565b6005111561213657565b634e487b7160e01b600052602160045260246000fd5b919082519283825260005b848110612178575050826000602080949584010152601f8019910116010190565b602081830181015184830182015201612157565b600954811015611f015760096000527f6e1540171b6c0c960b71a7020d9f60077f6af931a8bbf590da0223dacf75c7af0190600090565b90600182811c921680156121f3575b60208310146121dd57565b634e487b7160e01b600052602260045260246000fd5b91607f16916121d2565b6001600160401b03811161163b57604052565b61018081019081106001600160401b0382111761163b57604052565b604081019081106001600160401b0382111761163b57604052565b602081019081106001600160401b0382111761163b57604052565b90601f801991011681019081106001600160401b0382111761163b57604052565b9060405191826000825492612297846121c3565b90818452600194858116908160001461230657506001146122c3575b50506122c192500383612262565b565b9093915060005260209081600020936000915b8183106122ee5750506122c1935082010138806122b3565b855488840185015294850194879450918301916122d6565b9150506122c194506020925060ff191682840152151560051b82010138806122b3565b6000546001600160a01b0316330361233d57565b60405163118cdaa760e01b8152336004820152602490fd5b601f8111612361575050565b600090600d82526000805160206127b1833981519152906020601f850160051c830194106123aa575b601f0160051c01915b82811061239f57505050565b818155600101612393565b909250829061238a565b90601f81116123c257505050565b600091825260208220906020601f850160051c830194106123fe575b601f0160051c01915b8281106123f357505050565b8181556001016123e7565b90925082906123de565b6001600160401b03811161163b5760051b60200190565b6001600160401b03811161163b57601f01601f191660200190565b9291926124468261241f565b916124546040519384612262565b8294818452818301116120bf578281602093846000960137010152565b805115611f015760200190565b805160011015611f015760400190565b908060209392818452848401376000828201840152601f01601f1916010190565b156124b657565b60405162461bcd60e51b81526020600482015260146024820152731059d95b9d081b9bdd081c9959da5cdd195c995960621b6044820152606490fd5b60001981146125015760010190565b634e487b7160e01b600052601160045260246000fd5b600260015414612528576002600155565b604051633ee5aeb560e01b8152600490fd5b1561254157565b60405162461bcd60e51b815260206004820152601060248201526f5461736b206e6f742070656e64696e6760801b6044820152606490fd5b1561258057565b60405162461bcd60e51b81526020600482015260116024820152702737ba103a3432903932b8bab2b9ba32b960791b6044820152606490fd5b156125c057565b60405162461bcd60e51b815260206004820152601260248201527115185cdac81b9bdd0818dbdb5c1b195d195960721b6044820152606490fd5b3d15612625573d9061260b8261241f565b916126196040519384612262565b82523d6000602084013e565b606090565b51906001600160401b03821682036120bf57565b519060ff821682036120bf57565b90815180825260208080930193019160005b82811061266c575050505090565b83516001600160a01b03168552938101939281019260010161265e565b6126928161212c565b8015612766576126a18161212c565b6001811461273e576126b28161212c565b6002811461271457806126c660039261212c565b146126ed576040516126d78161222c565b6006815265637573746f6d60d01b602082015290565b6040516126f98161222c565b600b81526a3a3930b739b630ba34b7b760a91b602082015290565b506040516127218161222c565b600d81526c646174612d616e616c7973697360981b602082015290565b5060405161274b8161222c565b600b81526a636f64652d72657669657760a81b602082015290565b506040516127738161222c565b600d81526c39bab6b6b0b934bd30ba34b7b760991b60208201529056fedf6966c971051c3d54ec59162606531493a51404a002842f56009d7e5cf4a8c7d7b6990105719101dabeb77144f2a3385c8033acd3af97e9423a695e81ad1eb50175b7a638427703f0dbe7bb9bbf987a2551717b34e79f33b5b1008d1fa01db9a26469706673582212207821485a4429c84ff9ae8b13038c61e24c22307c32f88821d79caf60be2cbf4b64736f6c63430008140033",
  "linkReferences": {},
  "deployedLinkReferences": {}
}