{
  "_format": "hh-sol-artifact-1",
  "contractName": "ValidationRegistry",
  "sourceName": "contracts/ValidationRegistry.sol",
  "abi": [
    {
      "inputs": [
        {
          "internalType": "address",
          "name": "_identityRegistry",
          "type": "address"
        }
      ],
      "stateMutability": "nonpayable",
      "type": "constructor"
    },
    {
      "inputs": [
        {
          "internalType": "address",
          "name": "owner",
          "type": "address"
        }
      ],
      "name": "OwnableInvalidOwner",
      "type": "error"
    },
    {
      "inputs": [
        {
          "internalType": "address",
          "name": "account",
          "type": "address"
        }
      ],
      "name": "OwnableUnauthorizedAccount",
      "type": "error"
    },
    {
      "anonymous": false,
      "inputs": [
        {
          "indexed": true,
          "internalType": "address",
          "name": "previousOwner",
          "type": "address"
        },
        {
          "indexed": true,
          "internalType": "address",
          "name": "newOwner",
          "type": "address"
        }
      ],
      "name": "OwnershipTransferred",
      "type": "event"
    },
    {
      "anonymous": false,
      "inputs": [
        {
          "indexed": true,
          "internalType": "address",
          "name": "validatorAddress",
          "type": "address"
        },
        {
          "indexed": true,
          "internalType": "uint256",
          "name": "agentId",
          "type": "uint256"
        },
        {
          "indexed": false,
          "internalType": "string",
          "name": "requestURI",
          "type": "string"
        },
        {
          "indexed": true,
          "internalType": "bytes32",
          "name": "requestHash",
          "type": "bytes32"
        }
      ],
      "name": "ValidationRequest",
      "type": "event"
    },
    {
      "anonymous": false,
      "inputs": [
        {
          "indexed": true,
          "internalType": "address",
          "name": "validatorAddress",
          "type": "address"
        },
        {
          "indexed": true,
          "internalType": "uint256",
          "name": "agentId",
          "type": "uint256"
        },
        {
          "indexed": true,
          "internalType": "bytes32",
          "name": "requestHash",
          "type": "bytes32"
        },
        {
          "indexed": false,
          "internalType": "uint8",
          "name": "response",
          "type": "uint8"
        },
        {
          "indexed": false,
          "internalType": "string",
          "name": "responseURI",
          "type": "string"
        },
        {
          "indexed": false,
          "internalType": "bytes32",
          "name": "responseHash",
          "type": "bytes32"
        },
        {
          "indexed": false,
          "internalType": "string",
          "name": "tag",
          "type": "string"
        }
      ],
      "name": "ValidationResponse",
      "type": "event"
    },
    {
      "inputs": [
        {
          "internalType": "uint256",
          "name": "agentId",
          "type": "uint256"
        }
      ],
      "name": "getAgentValidations",
      "outputs": [
        {
          "internalType": "bytes32[]",
          "name": "requestHashes",
          "type": "bytes32[]"
        }
      ],
      "stateMutability": "view",
      "type": "function"
    },
    {
      "inputs": [],
      "name": "getIdentityRegistry",
      "outputs": [
        {
          "internalType": "address",
          "name": "",
          "type": "address"
        }
      ],
      "stateMutability": "view",
      "type": "function"
    },
    {
      "inputs": [
        {
          "internalType": "uint256",
          "name": "agentId",
          "type": "uint256"
        },
        {
          "internalType": "address[]",
          "name": "validatorAddresses",
          "type": "address[]"
        },
        {
          "internalType": "string",
          "name": "tag",
          "type": "string"
        }
      ],
      "name": "getSummary",
      "outputs": [
        {
          "internalType": "uint64",
          "name": "count",
          "type": "uint64"
        },
        {
          "internalType": "uint8",
          "name": "averageResponse",
          "type": "uint8"
        }
      ],
      "stateMutability": "view",
      "type": "function"
    },
    {
      "inputs": [
        {
          "internalType": "bytes32",
          "name": "requestHash",
          "type": "bytes32"
        }
      ],
      "name": "getValidationStatus",
      "outputs": [
        {
          "internalType": "address",
          "name": "validatorAddress",
          "type": "address"
        },
        {
          "internalType": "uint256",
          "name": "agentId",
          "type": "uint256"
        },
        {
          "internalType": "uint8",
          "name": "response",
          "type": "uint8"
        },
        {
          "internalType": "bytes32",
          "name": "responseHash",
          "type": "bytes32"
        },
        {
          "internalType": "string",
          "name": "tag",
          "type": "string"
        },
        {
          "internalType": "uint256",
          "name": "lastUpdate",
          "type": "uint256"
        }
      ],
      "stateMutability": "view",
      "type": "function"
    },
    {
      "inputs": [
        {
          "internalType": "address",
          "name": "validatorAddress",
          "type": "address"
        }
      ],
      "name": "getValidatorRequests",
      "outputs": [
        {
          "internalType": "bytes32[]",
          "name": "requestHashes",
          "type": "bytes32[]"
        }
      ],
      "stateMutability": "view",
      "type": "function"
    },
    {
      "inputs": [],
      "name": "identityRegistry",
      "outputs": [
        {
          "internalType": "contract IIdentityRegistry",
          "name": "",
          "type": "address"
        }
      ],
      "stateMutability": "view",
      "type": "function"
    },
    {
      "inputs": [
        {
          "internalType": "bytes32",
          "name": "requestHash",
          "type": "bytes32"
        }
      ],
      "name": "isValidationComplete",
      "outputs": [
        {
          "internalType": "bool",
          "name": "",
          "type": "bool"
        }
      ],
      "stateMutability": "view",
      "type": "function"
    },
    {
      "inputs": [],
      "name": "owner",
      "outputs": [
        {
          "internalType": "address",
          "name": "",
          "type": "address"
        }
      ],
      "stateMutability": "view",
      "type": "function"
    },
    {
      "inputs": [],
      "name": "renounceOwnership",
      "outputs": [],
      "stateMutability": "nonpayable",
      "type": "function"
    },
    {
      "inputs": [
        {
          "internalType": "address",
          "name": "newOwner",
          "type": "address"
        }
      ],
      "name": "transferOwnership",
      "outputs": [],
      "stateMutability": "nonpayable",
      "type": "function"
    },
    {
      "inputs": [
        {
          "internalType": "address",
          "name": "validatorAddress",
          "type": "address"
        },
        {
          "internalType": "uint256",
          "name": "agentId",
          "type": "uint256"
        },
        {
          "internalType": "string",
          "name": "requestURI",
          "type": "string"
        },
        {
          "internalType": "bytes32",
          "name": "requestHash",
          "type": "bytes32"
        }
      ],
      "name": "validationRequest",
      "outputs": [],
      "stateMutability": "nonpayable",
      "type": "function"
    },
    {
      "inputs": [
        {
          "internalType": "bytes32",
          "name": "requestHash",
          "type": "bytes32"
        },
        {
          "internalType": "uint8",
          "name": "response",
          "type": "uint8"
        },
        {
          "internalType": "string",
          "name": "responseURI",
          "type": "string"
        },
        {
          "internalType": "bytes32",
          "name": "responseHash",
          "type": "bytes32"
        },
        {
          "internalType": "string",
          "name": "tag",
          "type": "string"
        }
      ],
      "name": "validationResponse",
      "outputs": [],
      "stateMutability": "nonpayable",
      "type": "function"
    }
  ],
  "bytecode": "0x60a0346100d657601f61110238819003918201601f19168301916001600160401b038311848410176100db578084926020946040528339810103126100d657516001600160a01b0390818116908190036100d65733156100bd576000543360018060a01b0319821617600055604051923391167f8be0079c531659141344cd1fd0a4f28419497f9722a3daafe3b4186f6b6457e0600080a360805261101090816100f28239608051818181610215015281816102a40152610d240152f35b604051631e4fbdf760e01b815260006004820152602490fd5b600080fd5b634e487b7160e01b600052604160045260246000fdfe608080604052600436101561001357600080fd5b60e090600035821c908163134e18f414610d11575080631b7cabd614610a925780633d659a96146107c65780634bf3158c1461074e5780635fe5bd091461071a578063715018a6146106c15780638d5d0c2d146106475780638da5cb5b1461061e578063aaf400c414610244578063bc4d861b146101ff578063f2fde38b146101715763ff2febfc146100a557600080fd5b3461016c576020908160031936011261016c57600435600052600182526040600020600460018060a01b038254169160018101549460ff6002830154166003830154906101086005850154946101016040518098819301610f35565b0386610dfd565b6040519788968752838701526040860152606085015260c060808501528251928360c086015260005b84811061015657505060008484018601525060a0830152601f01601f19168101030190f35b8181018301518882018801528795508201610131565b600080fd5b3461016c57602036600319011261016c5761018a610d80565b610192610dd1565b6001600160a01b039081169081156101e657600054826bffffffffffffffffffffffff60a01b821617600055167f8be0079c531659141344cd1fd0a4f28419497f9722a3daafe3b4186f6b6457e0600080a3005b604051631e4fbdf760e01b815260006004820152602490fd5b3461016c57600036600319011261016c576040517f00000000000000000000000000000000000000000000000000000000000000006001600160a01b03168152602090f35b503461016c57608036600319011261016c5761025e610d80565b6044356001600160401b03811161016c5761027d903690600401610d53565b60405163609c6d7f60e01b81526024803560048301523390820152919390916020816044817f00000000000000000000000000000000000000000000000000000000000000006001600160a01b03165afa908115610612576000916105d7575b50156105a1576064356000526001602052600560406000200154610563576040519081018181106001600160401b0382111761054d5760405260018060a01b0383168152602435602082015260006040820152600060608201526040518060208101106001600160401b0360208301111761054d57602081016040526000815260808201524260a0820152600060c08201526064356000526001602052604060002060018060a01b038251166bffffffffffffffffffffffff60a01b82541617815560208201516001820155600281019060ff6040840151169160ff199283825416179055606083015160038201556004810160808401518051906001600160401b03821161054d576103fa826103f48554610e1e565b85610e58565b602090601f83116001146104dd57928260069360ff969360c0966000926104d2575b50508160011b916000199060031b1c19161790555b60a0860151600582015501930151151591835416911617905560243560005260026020526104656064356040600020610eda565b60018060a01b03821660005260036020526104866064356040600020610eda565b7f530436c3634a98e1e626b0898be2f1e9980cc1bd2a78c07a0aba52d0a48a505960405160208152806104cd606435966024359660018060a01b0316956020840191610f14565b0390a4005b01519050388061041c565b90601f198316918460005260206000209260005b81811061053557509360ff969360c09693600193836006981061051c575b505050811b019055610431565b015160001960f88460031b161c1916905538808061050f565b929360206001819287860151815501950193016104f1565b634e487b7160e01b600052604160045260246000fd5b60405162461bcd60e51b81526020600482015260166024820152755265717565737420616c72656164792065786973747360501b6044820152606490fd5b60405162461bcd60e51b815260206004820152600e60248201526d139bdd08185d5d1a1bdc9a5e995960921b6044820152606490fd5b90506020813d60201161060a575b816105f260209383610dfd565b8101031261016c5751801515810361016c57386102dd565b3d91506105e5565b6040513d6000823e3d90fd5b3461016c57600036600319011261016c576000546040516001600160a01b039091168152602090f35b3461016c5760208060031936011261016c5760043560005260028152604060002090604051908181845491828152019360005281600020916000905b8282106106aa576106a68561069a81890382610dfd565b60405191829182610d96565b0390f35b835486529485019460019384019390910190610683565b3461016c57600036600319011261016c576106da610dd1565b600080546001600160a01b0319811682556001600160a01b03167f8be0079c531659141344cd1fd0a4f28419497f9722a3daafe3b4186f6b6457e08280a3005b3461016c57602036600319011261016c576004356000526001602052602060ff600660406000200154166040519015158152f35b3461016c5760208060031936011261016c576001600160a01b03610770610d80565b1660005260038152604060002090604051908181845491828152019360005281600020916000905b8282106107af576106a68561069a81890382610dfd565b835486529485019460019384019390910190610798565b3461016c5760a036600319011261016c5760043560243560ff811680910361016c576001600160401b0360443581811161016c57610808903690600401610d53565b9260843583811161016c57610821903690600401610d53565b86600095929552600193602094808652604060002060058101805415610a545781546001600160a01b03163303610a0f57606487116109d157600282019060ff1991888382541617905560643596876003850155861161054d57600483016108938761088d8354610e1e565b83610e58565b60008b601f891160011461093a579261091a9592897fafddf629e874ccc3963b6a888c477bd464a6c8525024fc88759ea3b2326349ae9d9c9b9996936104cd9b999660009261092f575b505060001960038a901b1c191688861b1790555b429055826006830191825416179055015499608060405198899889528801526080870191610f14565b91604085015283820360608501523396610f14565b01359050388f6108dd565b601f19891691836000528c6000209260005b8181106109ba5750928a98959261091a9895927fafddf629e874ccc3963b6a888c477bd464a6c8525024fc88759ea3b2326349ae9f9e9d9b98959c6104cd9d106109a0575b5050508488811b0190556108f1565b013560001960038b901b60f8161c19169055388e81610991565b928201358455928801928e92918e01918e0161094c565b60405162461bcd60e51b81526004810189905260166024820152750526573706f6e7365206d75737420626520302d3130360541b6044820152606490fd5b60405162461bcd60e51b815260048101899052601c60248201527f4e6f74207468652064657369676e617465642076616c696461746f72000000006044820152606490fd5b60405162461bcd60e51b815260048101899052601660248201527514995c5d595cdd08191bd95cc81b9bdd08195e1a5cdd60521b6044820152606490fd5b3461016c57606036600319011261016c576001600160401b036024351161016c5736602360243501121561016c576001600160401b03602435600401351161016c5736602480356004013560051b813501011161016c576044356001600160401b03811161016c57610b08903690600401610d53565b60008092600435600052600260205260406000206000936000928254925b838510610b8057876001600160401b0387168881158015610b54575b6040805184815260ff86166020820152f35b909250610b6a5760ff8082604094041692610b42565b634e487b7160e01b600052601260045260246000fd5b909192939495610b908683610eac565b90549060031b1c6000526001602052604060002060ff60068201541615610c205760243560040135610c9c575b84151580610c2c575b610c2057600260ff910154168101809111610c0a576001600160401b039096166001600160401b038114610c0a576001610c01910195610fcb565b93929190610b26565b634e487b7160e01b600052601160045260246000fd5b509594610c0190610fcb565b50604051610c4881610c418160048601610f35565b0382610dfd565b602081519101206001600160401b03861161054d57604051610c74601f8801601f191660200182610dfd565b868152368787011161016c576020810190878783376000602089830101525190201415610bc6565b80546000906001600160a01b0316815b602435600401358110610ccc575b5050610bbd57509594610c0190610fcb565b60248035600583901b0101356001600160a01b038116810361016c576001600160a01b03168214610d0557610d0090610fcb565b610cac565b50505060018a80610cba565b3461016c57600036600319011261016c577f00000000000000000000000000000000000000000000000000000000000000006001600160a01b03168152602090f35b9181601f8401121561016c578235916001600160401b03831161016c576020838186019501011161016c57565b600435906001600160a01b038216820361016c57565b6020908160408183019282815285518094520193019160005b828110610dbd575050505090565b835185529381019392810192600101610daf565b6000546001600160a01b03163303610de557565b60405163118cdaa760e01b8152336004820152602490fd5b90601f801991011681019081106001600160401b0382111761054d57604052565b90600182811c92168015610e4e575b6020831014610e3857565b634e487b7160e01b600052602260045260246000fd5b91607f1691610e2d565b90601f8111610e6657505050565b600091825260208220906020601f850160051c83019410610ea2575b601f0160051c01915b828110610e9757505050565b818155600101610e8b565b9092508290610e82565b8054821015610ec45760005260206000200190600090565b634e487b7160e01b600052603260045260246000fd5b80546801000000000000000081101561054d57610efc91600182018155610eac565b819291549060031b91821b91600019901b1916179055565b908060209392818452848401376000828201840152601f01601f1916010190565b9060009291805491610f4683610e1e565b918282526001938481169081600014610fa85750600114610f68575b50505050565b90919394506000526020928360002092846000945b838610610f94575050505001019038808080610f62565b805485870183015294019385908201610f7d565b9294505050602093945060ff191683830152151560051b01019038808080610f62565b6000198114610c0a576001019056fea2646970667358221220d2edb434df0f31161f9bf9f2cd41d8029a34f00196dd580a47c20fb167e9871664736f6c63430008140033",
  "linkReferences": {},
  "deployedLinkReferences": {}
}